{
  "_format": "hh-sol-artifact-1",
  "contractName": "FundManager",
  "sourceName": "contracts/FundManager.sol",
  "abi": [
    {
      "inputs": [
        {
          "internalType": "uint256",
          "name": "issued",
          "type": "uint256"
        },
        {
          "internalType": "uint256",
          "name": "available",
          "type": "uint256"
        }
      ],
      "name": "InsufficientBalance",
      "type": "error"
    },
    {
      "inputs": [
        {
          "internalType": "address",
          "name": "caller",
          "type": "address"
        }
      ],
      "name": "Unauthorized",
      "type": "error"
    },
    {
      "anonymous": false,
      "inputs": [
        {
          "indexed": true,
          "internalType": "address",
          "name": "funder",
          "type": "address"
        },
        {
          "indexed": false,
          "internalType": "uint256",
          "name": "amount",
          "type": "uint256"
        }
      ],
      "name": "ContributionReceived",
      "type": "event"
    },
    {
      "anonymous": false,
      "inputs": [
        {
          "indexed": true,
          "internalType": "address",
          "name": "funder",
          "type": "address"
        },
        {
          "indexed": true,
          "internalType": "uint256",
          "name": "issueId",
          "type": "uint256"
        },
        {
          "indexed": false,
          "internalType": "uint256",
          "name": "amount",
          "type": "uint256"
        }
      ],
      "name": "FundsAllocated",
      "type": "event"
    },
    {
      "anonymous": false,
      "inputs": [
        {
          "indexed": true,
          "internalType": "address",
          "name": "funder",
          "type": "address"
        },
        {
          "indexed": true,
          "internalType": "uint256",
          "name": "fromIssueId",
          "type": "uint256"
        },
        {
          "indexed": true,
          "internalType": "uint256",
          "name": "toIssueId",
          "type": "uint256"
        },
        {
          "indexed": false,
          "internalType": "uint256",
          "name": "amount",
          "type": "uint256"
        }
      ],
      "name": "FundsReallocated",
      "type": "event"
    },
    {
      "inputs": [
        {
          "internalType": "uint256",
          "name": "issueId",
          "type": "uint256"
        },
        {
          "internalType": "uint256",
          "name": "amount",
          "type": "uint256"
        }
      ],
      "name": "allocateFunds",
      "outputs": [],
      "stateMutability": "nonpayable",
      "type": "function"
    },
    {
      "inputs": [
        {
          "internalType": "address",
          "name": "",
          "type": "address"
        }
      ],
      "name": "funderContributions",
      "outputs": [
        {
          "internalType": "uint256",
          "name": "",
          "type": "uint256"
        }
      ],
      "stateMutability": "view",
      "type": "function"
    },
    {
      "inputs": [
        {
          "internalType": "uint256",
          "name": "issueId",
          "type": "uint256"
        }
      ],
      "name": "getIssueFunds",
      "outputs": [
        {
          "internalType": "uint256",
          "name": "",
          "type": "uint256"
        }
      ],
      "stateMutability": "view",
      "type": "function"
    },
    {
      "inputs": [
        {
          "internalType": "uint256",
          "name": "",
          "type": "uint256"
        }
      ],
      "name": "issueFunds",
      "outputs": [
        {
          "internalType": "uint256",
          "name": "",
          "type": "uint256"
        }
      ],
      "stateMutability": "view",
      "type": "function"
    },
    {
      "inputs": [
        {
          "internalType": "uint256",
          "name": "fromIssueId",
          "type": "uint256"
        },
        {
          "internalType": "uint256",
          "name": "toIssueId",
          "type": "uint256"
        },
        {
          "internalType": "uint256",
          "name": "amount",
          "type": "uint256"
        }
      ],
      "name": "reallocateFunds",
      "outputs": [],
      "stateMutability": "nonpayable",
      "type": "function"
    },
    {
      "inputs": [
        {
          "internalType": "address",
          "name": "",
          "type": "address"
        },
        {
          "internalType": "uint256",
          "name": "",
          "type": "uint256"
        }
      ],
      "name": "trackFunds",
      "outputs": [
        {
          "internalType": "uint256",
          "name": "",
          "type": "uint256"
        }
      ],
      "stateMutability": "view",
      "type": "function"
    },
    {
      "stateMutability": "payable",
      "type": "receive"
    }
  ],
  "bytecode": "0x6080604052348015600f57600080fd5b50610a068061001f6000396000f3fe6080604052600436106100595760003560e01c80630d047bd414610108578063328fb510146101455780639d2e44321461016e5780639f83fabd146101ab578063b6f5cad2146101e8578063ce5d70d61461021157610103565b3661010357346000803373ffffffffffffffffffffffffffffffffffffffff1673ffffffffffffffffffffffffffffffffffffffff16815260200190815260200160002060008282546100ac9190610759565b925050819055503373ffffffffffffffffffffffffffffffffffffffff167f1bb460ccaaf70fbacfec17a376f8acbd278c1405590ffcc8ebe4b88daf4f64ad346040516100f9919061079c565b60405180910390a2005b600080fd5b34801561011457600080fd5b5061012f600480360381019061012a9190610846565b61024e565b60405161013c919061079c565b60405180910390f35b34801561015157600080fd5b5061016c60048036038101906101679190610886565b610273565b005b34801561017a57600080fd5b50610195600480360381019061019091906108c6565b610471565b6040516101a2919061079c565b60405180910390f35b3480156101b757600080fd5b506101d260048036038101906101cd91906108f3565b610489565b6040516101df919061079c565b60405180910390f35b3480156101f457600080fd5b5061020f600480360381019061020a9190610920565b6104a6565b005b34801561021d57600080fd5b50610238600480360381019061023391906108f3565b610708565b604051610245919061079c565b60405180910390f35b6002602052816000526040600020602052806000526040600020600091509150505481565b80806000803373ffffffffffffffffffffffffffffffffffffffff1673ffffffffffffffffffffffffffffffffffffffff16815260200190815260200160002054101561033757806000803373ffffffffffffffffffffffffffffffffffffffff1673ffffffffffffffffffffffffffffffffffffffff168152602001908152602001600020546040517fcf47918100000000000000000000000000000000000000000000000000000000815260040161032e929190610973565b60405180910390fd5b816000803373ffffffffffffffffffffffffffffffffffffffff1673ffffffffffffffffffffffffffffffffffffffff1681526020019081526020016000206000828254610385919061099c565b92505081905550816001600085815260200190815260200160002060008282546103af9190610759565b9250508190555081600260003373ffffffffffffffffffffffffffffffffffffffff1673ffffffffffffffffffffffffffffffffffffffff168152602001908152602001600020600085815260200190815260200160002060008282546104169190610759565b92505081905550823373ffffffffffffffffffffffffffffffffffffffff167f30af291e119a9f2e7d5cf8d636a06b4f128ea34c705b7d5da7e94f69739f0fba84604051610464919061079c565b60405180910390a3505050565b60006020528060005260406000206000915090505481565b600060016000838152602001908152602001600020549050919050565b828180600260003373ffffffffffffffffffffffffffffffffffffffff1673ffffffffffffffffffffffffffffffffffffffff168152602001908152602001600020600084815260200190815260200160002054101561058f5780600260003373ffffffffffffffffffffffffffffffffffffffff1673ffffffffffffffffffffffffffffffffffffffff1681526020019081526020016000206000848152602001908152602001600020546040517fcf479181000000000000000000000000000000000000000000000000000000008152600401610586929190610973565b60405180910390fd5b82600260003373ffffffffffffffffffffffffffffffffffffffff1673ffffffffffffffffffffffffffffffffffffffff168152602001908152602001600020600087815260200190815260200160002060008282546105ef919061099c565b9250508190555082600160008781526020019081526020016000206000828254610619919061099c565b9250508190555082600260003373ffffffffffffffffffffffffffffffffffffffff1673ffffffffffffffffffffffffffffffffffffffff168152602001908152602001600020600086815260200190815260200160002060008282546106809190610759565b92505081905550826001600086815260200190815260200160002060008282546106aa9190610759565b9250508190555083853373ffffffffffffffffffffffffffffffffffffffff167fd4b272500e0b2772e95da4b1cc1d23f2ccda70e45015be0fec10fcdf7f076c5f866040516106f9919061079c565b60405180910390a45050505050565b60016020528060005260406000206000915090505481565b6000819050919050565b7f4e487b7100000000000000000000000000000000000000000000000000000000600052601160045260246000fd5b600061076482610720565b915061076f83610720565b92508282019050808211156107875761078661072a565b5b92915050565b61079681610720565b82525050565b60006020820190506107b1600083018461078d565b92915050565b600080fd5b600073ffffffffffffffffffffffffffffffffffffffff82169050919050565b60006107e7826107bc565b9050919050565b6107f7816107dc565b811461080257600080fd5b50565b600081359050610814816107ee565b92915050565b61082381610720565b811461082e57600080fd5b50565b6000813590506108408161081a565b92915050565b6000806040838503121561085d5761085c6107b7565b5b600061086b85828601610805565b925050602061087c85828601610831565b9150509250929050565b6000806040838503121561089d5761089c6107b7565b5b60006108ab85828601610831565b92505060206108bc85828601610831565b9150509250929050565b6000602082840312156108dc576108db6107b7565b5b60006108ea84828501610805565b91505092915050565b600060208284031215610909576109086107b7565b5b600061091784828501610831565b91505092915050565b600080600060608486031215610939576109386107b7565b5b600061094786828701610831565b935050602061095886828701610831565b925050604061096986828701610831565b9150509250925092565b6000604082019050610988600083018561078d565b610995602083018461078d565b9392505050565b60006109a782610720565b91506109b283610720565b92508282039050818111156109ca576109c961072a565b5b9291505056fea264697066735822122023b39ab44b27b90a3528ba3097b09277f43418f6b1458113e28895a0a2ed632064736f6c634300081c0033",
  "linkReferences": {},
  "deployedLinkReferences": {}
}