{
  "_format": "hh-sol-artifact-1",
  "contractName": "ValidatorMultiSig",
  "sourceName": "contracts/ValidatorMultiSig.sol",
  "abi": [
    {
      "inputs": [
        {
          "internalType": "address",
          "name": "_fundManager",
          "type": "address"
        },
        {
          "internalType": "address[]",
          "name": "validators",
          "type": "address[]"
        }
      ],
      "stateMutability": "nonpayable",
      "type": "constructor"
    },
    {
      "inputs": [],
      "name": "ReentrancyGuardReentrantCall",
      "type": "error"
    },
    {
      "anonymous": false,
      "inputs": [
        {
          "indexed": true,
          "internalType": "uint256",
          "name": "issueId",
          "type": "uint256"
        },
        {
          "indexed": false,
          "internalType": "uint256",
          "name": "amount",
          "type": "uint256"
        }
      ],
      "name": "FundsReleased",
      "type": "event"
    },
    {
      "anonymous": false,
      "inputs": [
        {
          "indexed": true,
          "internalType": "address",
          "name": "validator",
          "type": "address"
        },
        {
          "indexed": true,
          "internalType": "uint256",
          "name": "issueId",
          "type": "uint256"
        }
      ],
      "name": "WorkApproved",
      "type": "event"
    },
    {
      "inputs": [
        {
          "internalType": "uint256",
          "name": "",
          "type": "uint256"
        }
      ],
      "name": "approvals",
      "outputs": [
        {
          "internalType": "uint256",
          "name": "",
          "type": "uint256"
        }
      ],
      "stateMutability": "view",
      "type": "function"
    },
    {
      "inputs": [
        {
          "internalType": "uint256",
          "name": "mergeRequest",
          "type": "uint256"
        }
      ],
      "name": "approveWork",
      "outputs": [],
      "stateMutability": "nonpayable",
      "type": "function"
    },
    {
      "inputs": [
        {
          "internalType": "address",
          "name": "",
          "type": "address"
        }
      ],
      "name": "isValidator",
      "outputs": [
        {
          "internalType": "bool",
          "name": "authorized",
          "type": "bool"
        }
      ],
      "stateMutability": "view",
      "type": "function"
    },
    {
      "inputs": [
        {
          "internalType": "uint256",
          "name": "issueId",
          "type": "uint256"
        },
        {
          "internalType": "uint256",
          "name": "mergeRequest",
          "type": "uint256"
        },
        {
          "internalType": "address",
          "name": "developer",
          "type": "address"
        }
      ],
      "name": "releaseFunds",
      "outputs": [],
      "stateMutability": "payable",
      "type": "function"
    },
    {
      "inputs": [],
      "name": "requiredApprovals",
      "outputs": [
        {
          "internalType": "uint256",
          "name": "",
          "type": "uint256"
        }
      ],
      "stateMutability": "view",
      "type": "function"
    }
  ],
  "bytecode": "0x608060405234801561001057600080fd5b50604051610df0380380610df0833981810160405281019061003291906102dc565b600160008190555081600160006101000a81548173ffffffffffffffffffffffffffffffffffffffff021916908373ffffffffffffffffffffffffffffffffffffffff16021790555060005b8151811015610109576001600360008484815181106100a05761009f610338565b5b602002602001015173ffffffffffffffffffffffffffffffffffffffff1673ffffffffffffffffffffffffffffffffffffffff16815260200190815260200160002060010160006101000a81548160ff021916908315150217905550808060010191505061007e565b505050610367565b6000604051905090565b600080fd5b600080fd5b600073ffffffffffffffffffffffffffffffffffffffff82169050919050565b600061015082610125565b9050919050565b61016081610145565b811461016b57600080fd5b50565b60008151905061017d81610157565b92915050565b600080fd5b6000601f19601f8301169050919050565b7f4e487b7100000000000000000000000000000000000000000000000000000000600052604160045260246000fd5b6101d182610188565b810181811067ffffffffffffffff821117156101f0576101ef610199565b5b80604052505050565b6000610203610111565b905061020f82826101c8565b919050565b600067ffffffffffffffff82111561022f5761022e610199565b5b602082029050602081019050919050565b600080fd5b600061025861025384610214565b6101f9565b9050808382526020820190506020840283018581111561027b5761027a610240565b5b835b818110156102a45780610290888261016e565b84526020840193505060208101905061027d565b5050509392505050565b600082601f8301126102c3576102c2610183565b5b81516102d3848260208601610245565b91505092915050565b600080604083850312156102f3576102f261011b565b5b60006103018582860161016e565b925050602083015167ffffffffffffffff81111561032257610321610120565b5b61032e858286016102ae565b9150509250929050565b7f4e487b7100000000000000000000000000000000000000000000000000000000600052603260045260246000fd5b610a7a806103766000396000f3fe60806040526004361061004a5760003560e01c80633d01e0fa1461004f57806363035f661461007857806399c1aadc146100b5578063f16fd392146100e0578063facd743b146100fc575b600080fd5b34801561005b57600080fd5b5061007660048036038101906100719190610639565b610139565b005b34801561008457600080fd5b5061009f600480360381019061009a9190610639565b6102db565b6040516100ac9190610675565b60405180910390f35b3480156100c157600080fd5b506100ca6102f3565b6040516100d79190610675565b60405180910390f35b6100fa60048036038101906100f591906106ee565b6102f8565b005b34801561010857600080fd5b50610123600480360381019061011e9190610741565b610583565b6040516101309190610789565b60405180910390f35b600360003373ffffffffffffffffffffffffffffffffffffffff1673ffffffffffffffffffffffffffffffffffffffff16815260200190815260200160002060010160009054906101000a900460ff166101c8576040517f08c379a00000000000000000000000000000000000000000000000000000000081526004016101bf90610801565b60405180910390fd5b80600360003373ffffffffffffffffffffffffffffffffffffffff1673ffffffffffffffffffffffffffffffffffffffff168152602001908152602001600020600001600082815260200190815260200160002060009054906101000a900460ff161561026a576040517f08c379a00000000000000000000000000000000000000000000000000000000081526004016102619061086d565b60405180910390fd5b60026000838152602001908152602001600020600081548092919061028e906108bc565b9190505550813373ffffffffffffffffffffffffffffffffffffffff167f97317410cab7de9323eb972bc315e3726a4b33052d76ea01d1ca261a3df66fe260405160405180910390a35050565b60026020528060005260406000206000915090505481565b600381565b81600360026000838152602001908152602001600020541015610350576040517f08c379a000000000000000000000000000000000000000000000000000000000815260040161034790610950565b60405180910390fd5b836000600160009054906101000a900473ffffffffffffffffffffffffffffffffffffffff1673ffffffffffffffffffffffffffffffffffffffff16639f83fabd836040518263ffffffff1660e01b81526004016103ae9190610675565b602060405180830381865afa1580156103cb573d6000803e3d6000fd5b505050506040513d601f19601f820116820180604052508101906103ef9190610985565b905060008111610434576040517f08c379a000000000000000000000000000000000000000000000000000000000815260040161042b90610a24565b60405180910390fd5b61043c6105ae565b6000600160009054906101000a900473ffffffffffffffffffffffffffffffffffffffff1673ffffffffffffffffffffffffffffffffffffffff16639f83fabd886040518263ffffffff1660e01b81526004016104999190610675565b602060405180830381865afa1580156104b6573d6000803e3d6000fd5b505050506040513d601f19601f820116820180604052508101906104da9190610985565b90508473ffffffffffffffffffffffffffffffffffffffff166108fc829081150290604051600060405180830381858888f19350505050158015610522573d6000803e3d6000fd5b50867f80230996023d69b50793fa73f1919127c9d8e741d3989743c479169f22e7a288826040516105539190610675565b60405180910390a260026000888152602001908152602001600020600090555061057b6105f4565b505050505050565b60036020528060005260406000206000915090508060010160009054906101000a900460ff16905081565b6002600054036105ea576040517f3ee5aeb500000000000000000000000000000000000000000000000000000000815260040160405180910390fd5b6002600081905550565b6001600081905550565b600080fd5b6000819050919050565b61061681610603565b811461062157600080fd5b50565b6000813590506106338161060d565b92915050565b60006020828403121561064f5761064e6105fe565b5b600061065d84828501610624565b91505092915050565b61066f81610603565b82525050565b600060208201905061068a6000830184610666565b92915050565b600073ffffffffffffffffffffffffffffffffffffffff82169050919050565b60006106bb82610690565b9050919050565b6106cb816106b0565b81146106d657600080fd5b50565b6000813590506106e8816106c2565b92915050565b600080600060608486031215610707576107066105fe565b5b600061071586828701610624565b935050602061072686828701610624565b9250506040610737868287016106d9565b9150509250925092565b600060208284031215610757576107566105fe565b5b6000610765848285016106d9565b91505092915050565b60008115159050919050565b6107838161076e565b82525050565b600060208201905061079e600083018461077a565b92915050565b600082825260208201905092915050565b7f4e6f7420616e20617574686f72697a65642076616c696461746f720000000000600082015250565b60006107eb601b836107a4565b91506107f6826107b5565b602082019050919050565b6000602082019050818103600083015261081a816107de565b9050919050565b7f596f75206861766520616c726561647920766f74656400000000000000000000600082015250565b60006108576016836107a4565b915061086282610821565b602082019050919050565b600060208201905081810360008301526108868161084a565b9050919050565b7f4e487b7100000000000000000000000000000000000000000000000000000000600052601160045260246000fd5b60006108c782610603565b91507fffffffffffffffffffffffffffffffffffffffffffffffffffffffffffffffff82036108f9576108f861088d565b5b600182019050919050565b7f4e6f7420656e6f75676820617070726f76616c73000000000000000000000000600082015250565b600061093a6014836107a4565b915061094582610904565b602082019050919050565b600060208201905081810360008301526109698161092d565b9050919050565b60008151905061097f8161060d565b92915050565b60006020828403121561099b5761099a6105fe565b5b60006109a984828501610970565b91505092915050565b7f4e6f2066756e647320616c6c6f636174656420666f722074686973206973737560008201527f6500000000000000000000000000000000000000000000000000000000000000602082015250565b6000610a0e6021836107a4565b9150610a19826109b2565b604082019050919050565b60006020820190508181036000830152610a3d81610a01565b905091905056fea2646970667358221220dbf0a970b83619382916113e321adb6dd9bd4295a0ecaad0d2f9d127f9dfab5464736f6c634300081c0033",
  "linkReferences": {},
  "deployedLinkReferences": {}
}