{
  "contracts/Number.sol": {
    "Number": {
      "abi": [
        {
          "anonymous": false,
          "inputs": [
            {
              "indexed": false,
              "internalType": "uint256",
              "name": "oldValue",
              "type": "uint256"
            },
            {
              "indexed": false,
              "internalType": "uint256",
              "name": "newValue",
              "type": "uint256"
            }
          ],
          "name": "NumberChanged",
          "type": "event"
        },
        {
          "inputs": [
            {
              "internalType": "uint256",
              "name": "a",
              "type": "uint256"
            },
            {
              "internalType": "uint256",
              "name": "b",
              "type": "uint256"
            }
          ],
          "name": "adder",
          "outputs": [
            {
              "internalType": "uint256",
              "name": "",
              "type": "uint256"
            }
          ],
          "stateMutability": "pure",
          "type": "function"
        },
        {
          "inputs": [],
          "name": "doubleNumber",
          "outputs": [
            {
              "internalType": "uint256",
              "name": "",
              "type": "uint256"
            }
          ],
          "stateMutability": "view",
          "type": "function"
        },
        {
          "inputs": [],
          "name": "number",
          "outputs": [
            {
              "internalType": "uint256",
              "name": "",
              "type": "uint256"
            }
          ],
          "stateMutability": "view",
          "type": "function"
        },
        {
          "inputs": [
            {
              "internalType": "uint256",
              "name": "_num",
              "type": "uint256"
            }
          ],
          "name": "setNumber",
          "outputs": [],
          "stateMutability": "nonpayable",
          "type": "function"
        }
      ],
      "evm": {
        "bytecode": {
          "linkReferences": {},
          "object": "6080604052348015600f57600080fd5b5061032d8061001f6000396000f3fe608060405234801561001057600080fd5b506004361061004c5760003560e01c806306b034e9146100515780633fb5c1cb14610081578063603625141461009d5780638381f58a146100bb575b600080fd5b61006b60048036038101906100669190610192565b6100d9565b60405161007891906101e1565b60405180910390f35b61009b600480360381019061009691906101fc565b6100ef565b005b6100a561013b565b6040516100b291906101e1565b60405180910390f35b6100c3610151565b6040516100d091906101e1565b60405180910390f35b600081836100e79190610258565b905092915050565b600080549050816000819055507f31431e8e0193815c649ffbfb9013954926640a5c67ada972108cdb5a47a0d7288160005460405161012f92919061028c565b60405180910390a15050565b6000600260005461014c91906102b5565b905090565b60005481565b600080fd5b6000819050919050565b61016f8161015c565b811461017a57600080fd5b50565b60008135905061018c81610166565b92915050565b600080604083850312156101a9576101a8610157565b5b60006101b78582860161017d565b92505060206101c88582860161017d565b9150509250929050565b6101db8161015c565b82525050565b60006020820190506101f660008301846101d2565b92915050565b60006020828403121561021257610211610157565b5b60006102208482850161017d565b91505092915050565b7f4e487b7100000000000000000000000000000000000000000000000000000000600052601160045260246000fd5b60006102638261015c565b915061026e8361015c565b925082820190508082111561028657610285610229565b5b92915050565b60006040820190506102a160008301856101d2565b6102ae60208301846101d2565b9392505050565b60006102c08261015c565b91506102cb8361015c565b92508282026102d98161015c565b915082820484148315176102f0576102ef610229565b5b509291505056fea2646970667358221220e447b14fd18b6bfd2cd2d56fe996bd951122280eba2282e4ccf5d73e7c2a1f6864736f6c634300081c0033",
          "opcodes": "PUSH1 0x80 PUSH1 0x40 MSTORE CALLVALUE DUP1 ISZERO PUSH1 0xF JUMPI PUSH1 0x0 DUP1 REVERT JUMPDEST POP PUSH2 0x32D DUP1 PUSH2 0x1F PUSH1 0x0 CODECOPY PUSH1 0x0 RETURN INVALID PUSH1 0x80 PUSH1 0x40 MSTORE CALLVALUE DUP1 ISZERO PUSH2 0x10 JUMPI PUSH1 0x0 DUP1 REVERT JUMPDEST POP PUSH1 0x4 CALLDATASIZE LT PUSH2 0x4C JUMPI PUSH1 0x0 CALLDATALOAD PUSH1 0xE0 SHR DUP1 PUSH4 0x6B034E9 EQ PUSH2 0x51 JUMPI DUP1 PUSH4 0x3FB5C1CB EQ PUSH2 0x81 JUMPI DUP1 PUSH4 0x60362514 EQ PUSH2 0x9D JUMPI DUP1 PUSH4 0x8381F58A EQ PUSH2 0xBB JUMPI JUMPDEST PUSH1 0x0 DUP1 REVERT JUMPDEST PUSH2 0x6B PUSH1 0x4 DUP1 CALLDATASIZE SUB DUP2 ADD SWAP1 PUSH2 0x66 SWAP2 SWAP1 PUSH2 0x192 JUMP JUMPDEST PUSH2 0xD9 JUMP JUMPDEST PUSH1 0x40 MLOAD PUSH2 0x78 SWAP2 SWAP1 PUSH2 0x1E1 JUMP JUMPDEST PUSH1 0x40 MLOAD DUP1 SWAP2 SUB SWAP1 RETURN JUMPDEST PUSH2 0x9B PUSH1 0x4 DUP1 CALLDATASIZE SUB DUP2 ADD SWAP1 PUSH2 0x96 SWAP2 SWAP1 PUSH2 0x1FC JUMP JUMPDEST PUSH2 0xEF JUMP JUMPDEST STOP JUMPDEST PUSH2 0xA5 PUSH2 0x13B JUMP JUMPDEST PUSH1 0x40 MLOAD PUSH2 0xB2 SWAP2 SWAP1 PUSH2 0x1E1 JUMP JUMPDEST PUSH1 0x40 MLOAD DUP1 SWAP2 SUB SWAP1 RETURN JUMPDEST PUSH2 0xC3 PUSH2 0x151 JUMP JUMPDEST PUSH1 0x40 MLOAD PUSH2 0xD0 SWAP2 SWAP1 PUSH2 0x1E1 JUMP JUMPDEST PUSH1 0x40 MLOAD DUP1 SWAP2 SUB SWAP1 RETURN JUMPDEST PUSH1 0x0 DUP2 DUP4 PUSH2 0xE7 SWAP2 SWAP1 PUSH2 0x258 JUMP JUMPDEST SWAP1 POP SWAP3 SWAP2 POP POP JUMP JUMPDEST PUSH1 0x0 DUP1 SLOAD SWAP1 POP DUP2 PUSH1 0x0 DUP2 SWAP1 SSTORE POP PUSH32 0x31431E8E0193815C649FFBFB9013954926640A5C67ADA972108CDB5A47A0D728 DUP2 PUSH1 0x0 SLOAD PUSH1 0x40 MLOAD PUSH2 0x12F SWAP3 SWAP2 SWAP1 PUSH2 0x28C JUMP JUMPDEST PUSH1 0x40 MLOAD DUP1 SWAP2 SUB SWAP1 LOG1 POP POP JUMP JUMPDEST PUSH1 0x0 PUSH1 0x2 PUSH1 0x0 SLOAD PUSH2 0x14C SWAP2 SWAP1 PUSH2 0x2B5 JUMP JUMPDEST SWAP1 POP SWAP1 JUMP JUMPDEST PUSH1 0x0 SLOAD DUP2 JUMP JUMPDEST PUSH1 0x0 DUP1 REVERT JUMPDEST PUSH1 0x0 DUP2 SWAP1 POP SWAP2 SWAP1 POP JUMP JUMPDEST PUSH2 0x16F DUP2 PUSH2 0x15C JUMP JUMPDEST DUP2 EQ PUSH2 0x17A JUMPI PUSH1 0x0 DUP1 REVERT JUMPDEST POP JUMP JUMPDEST PUSH1 0x0 DUP2 CALLDATALOAD SWAP1 POP PUSH2 0x18C DUP2 PUSH2 0x166 JUMP JUMPDEST SWAP3 SWAP2 POP POP JUMP JUMPDEST PUSH1 0x0 DUP1 PUSH1 0x40 DUP4 DUP6 SUB SLT ISZERO PUSH2 0x1A9 JUMPI PUSH2 0x1A8 PUSH2 0x157 JUMP JUMPDEST JUMPDEST PUSH1 0x0 PUSH2 0x1B7 DUP6 DUP3 DUP7 ADD PUSH2 0x17D JUMP JUMPDEST SWAP3 POP POP PUSH1 0x20 PUSH2 0x1C8 DUP6 DUP3 DUP7 ADD PUSH2 0x17D JUMP JUMPDEST SWAP2 POP POP SWAP3 POP SWAP3 SWAP1 POP JUMP JUMPDEST PUSH2 0x1DB DUP2 PUSH2 0x15C JUMP JUMPDEST DUP3 MSTORE POP POP JUMP JUMPDEST PUSH1 0x0 PUSH1 0x20 DUP3 ADD SWAP1 POP PUSH2 0x1F6 PUSH1 0x0 DUP4 ADD DUP5 PUSH2 0x1D2 JUMP JUMPDEST SWAP3 SWAP2 POP POP JUMP JUMPDEST PUSH1 0x0 PUSH1 0x20 DUP3 DUP5 SUB SLT ISZERO PUSH2 0x212 JUMPI PUSH2 0x211 PUSH2 0x157 JUMP JUMPDEST JUMPDEST PUSH1 0x0 PUSH2 0x220 DUP5 DUP3 DUP6 ADD PUSH2 0x17D JUMP JUMPDEST SWAP2 POP POP SWAP3 SWAP2 POP POP JUMP JUMPDEST PUSH32 0x4E487B7100000000000000000000000000000000000000000000000000000000 PUSH1 0x0 MSTORE PUSH1 0x11 PUSH1 0x4 MSTORE PUSH1 0x24 PUSH1 0x0 REVERT JUMPDEST PUSH1 0x0 PUSH2 0x263 DUP3 PUSH2 0x15C JUMP JUMPDEST SWAP2 POP PUSH2 0x26E DUP4 PUSH2 0x15C JUMP JUMPDEST SWAP3 POP DUP3 DUP3 ADD SWAP1 POP DUP1 DUP3 GT ISZERO PUSH2 0x286 JUMPI PUSH2 0x285 PUSH2 0x229 JUMP JUMPDEST JUMPDEST SWAP3 SWAP2 POP POP JUMP JUMPDEST PUSH1 0x0 PUSH1 0x40 DUP3 ADD SWAP1 POP PUSH2 0x2A1 PUSH1 0x0 DUP4 ADD DUP6 PUSH2 0x1D2 JUMP JUMPDEST PUSH2 0x2AE PUSH1 0x20 DUP4 ADD DUP5 PUSH2 0x1D2 JUMP JUMPDEST SWAP4 SWAP3 POP POP POP JUMP JUMPDEST PUSH1 0x0 PUSH2 0x2C0 DUP3 PUSH2 0x15C JUMP JUMPDEST SWAP2 POP PUSH2 0x2CB DUP4 PUSH2 0x15C JUMP JUMPDEST SWAP3 POP DUP3 DUP3 MUL PUSH2 0x2D9 DUP2 PUSH2 0x15C JUMP JUMPDEST SWAP2 POP DUP3 DUP3 DIV DUP5 EQ DUP4 ISZERO OR PUSH2 0x2F0 JUMPI PUSH2 0x2EF PUSH2 0x229 JUMP JUMPDEST JUMPDEST POP SWAP3 SWAP2 POP POP JUMP INVALID LOG2 PUSH5 0x6970667358 0x22 SLT KECCAK256 0xE4 SELFBALANCE 0xB1 0x4F 0xD1 DUP12 PUSH12 0xFD2CD2D56FE996BD95112228 0xE 0xBA 0x22 DUP3 0xE4 0xCC CREATE2 0xD7 RETURNDATACOPY PUSH29 0x2A1F6864736F6C634300081C0033000000000000000000000000000000 "
        },
        "methodIdentifiers": {
          "adder(uint256,uint256)": "06b034e9",
          "doubleNumber()": "60362514",
          "number()": "8381f58a",
          "setNumber(uint256)": "3fb5c1cb"
        }
      }
    }
  }
}