{
  "_format": "hh-sol-artifact-1",
  "contractName": "DeveloperPayouts",
  "sourceName": "contracts/DeveloperPayouts.sol",
  "abi": [
    {
      "inputs": [
        {
          "internalType": "address",
          "name": "_fundManager",
          "type": "address"
        },
        {
          "internalType": "address",
          "name": "_validatorMultiSig",
          "type": "address"
        }
      ],
      "stateMutability": "nonpayable",
      "type": "constructor"
    },
    {
      "inputs": [],
      "name": "ReentrancyGuardReentrantCall",
      "type": "error"
    },
    {
      "anonymous": false,
      "inputs": [
        {
          "indexed": true,
          "internalType": "address",
          "name": "developer",
          "type": "address"
        },
        {
          "indexed": true,
          "internalType": "uint256",
          "name": "issueId",
          "type": "uint256"
        }
      ],
      "name": "IssueSelected",
      "type": "event"
    },
    {
      "anonymous": false,
      "inputs": [
        {
          "indexed": true,
          "internalType": "address",
          "name": "developer",
          "type": "address"
        },
        {
          "indexed": true,
          "internalType": "uint256",
          "name": "mergeRequest",
          "type": "uint256"
        },
        {
          "indexed": true,
          "internalType": "uint256",
          "name": "issueId",
          "type": "uint256"
        }
      ],
      "name": "MergeRequestSubmitted",
      "type": "event"
    },
    {
      "anonymous": false,
      "inputs": [
        {
          "indexed": true,
          "internalType": "address",
          "name": "developer",
          "type": "address"
        },
        {
          "indexed": true,
          "internalType": "uint256",
          "name": "issueId",
          "type": "uint256"
        }
      ],
      "name": "PaymentRequested",
      "type": "event"
    },
    {
      "inputs": [
        {
          "internalType": "uint256",
          "name": "",
          "type": "uint256"
        },
        {
          "internalType": "uint256",
          "name": "",
          "type": "uint256"
        }
      ],
      "name": "issuesInDevelopment",
      "outputs": [
        {
          "internalType": "address",
          "name": "",
          "type": "address"
        }
      ],
      "stateMutability": "view",
      "type": "function"
    },
    {
      "inputs": [
        {
          "internalType": "address",
          "name": "",
          "type": "address"
        },
        {
          "internalType": "uint256",
          "name": "",
          "type": "uint256"
        }
      ],
      "name": "proposals",
      "outputs": [
        {
          "internalType": "uint256",
          "name": "",
          "type": "uint256"
        }
      ],
      "stateMutability": "view",
      "type": "function"
    },
    {
      "inputs": [
        {
          "internalType": "uint256",
          "name": "mergeRequest",
          "type": "uint256"
        }
      ],
      "name": "requestPayment",
      "outputs": [],
      "stateMutability": "nonpayable",
      "type": "function"
    },
    {
      "inputs": [
        {
          "internalType": "uint256",
          "name": "issueId",
          "type": "uint256"
        }
      ],
      "name": "selectIssue",
      "outputs": [],
      "stateMutability": "nonpayable",
      "type": "function"
    },
    {
      "inputs": [
        {
          "internalType": "uint256",
          "name": "mergeRequest",
          "type": "uint256"
        },
        {
          "internalType": "uint256",
          "name": "issueId",
          "type": "uint256"
        }
      ],
      "name": "submitMergeRequest",
      "outputs": [],
      "stateMutability": "nonpayable",
      "type": "function"
    }
  ],
  "bytecode": "0x608060405234801561001057600080fd5b50604051610ba2380380610ba283398181016040528101906100329190610126565b600160008190555081600260006101000a81548173ffffffffffffffffffffffffffffffffffffffff021916908373ffffffffffffffffffffffffffffffffffffffff16021790555080600160006101000a81548173ffffffffffffffffffffffffffffffffffffffff021916908373ffffffffffffffffffffffffffffffffffffffff1602179055505050610166565b600080fd5b600073ffffffffffffffffffffffffffffffffffffffff82169050919050565b60006100f3826100c8565b9050919050565b610103816100e8565b811461010e57600080fd5b50565b600081519050610120816100fa565b92915050565b6000806040838503121561013d5761013c6100c3565b5b600061014b85828601610111565b925050602061015c85828601610111565b9150509250929050565b610a2d806101756000396000f3fe608060405234801561001057600080fd5b50600436106100575760003560e01c80635de988ab1461005c5780636918f850146100785780638e23a2f514610094578063e209e2b0146100c4578063fcfb5a74146100e0575b600080fd5b610076600480360381019061007191906106e1565b610110565b005b610092600480360381019061008d91906106e1565b61026d565b005b6100ae60048036038101906100a9919061076c565b610507565b6040516100bb91906107bb565b60405180910390f35b6100de60048036038101906100d991906107d6565b61052c565b005b6100fa60048036038101906100f591906107d6565b6105ca565b6040516101079190610825565b60405180910390f35b610118610618565b6000600460003373ffffffffffffffffffffffffffffffffffffffff1673ffffffffffffffffffffffffffffffffffffffff1681526020019081526020016000206000838152602001908152602001600020549050600160009054906101000a900473ffffffffffffffffffffffffffffffffffffffff1673ffffffffffffffffffffffffffffffffffffffff1663f16fd3928284336040518463ffffffff1660e01b81526004016101cc93929190610840565b600060405180830381600087803b1580156101e657600080fd5b505af11580156101fa573d6000803e3d6000fd5b5050505060036000828152602001908152602001600020600061021d9190610668565b803373ffffffffffffffffffffffffffffffffffffffff167f4a0353366c54503c4eb4d024baf56134b0a62137ed7b5f688a205cb8ec34758f60405160405180910390a35061026a61065e565b50565b806000805b6003600084815260200190815260200160002080549050811015610328573373ffffffffffffffffffffffffffffffffffffffff166003600085815260200190815260200160002082815481106102cc576102cb610877565b5b9060005260206000200160009054906101000a900473ffffffffffffffffffffffffffffffffffffffff1673ffffffffffffffffffffffffffffffffffffffff160361031b5760019150610328565b8080600101915050610272565b50801561036a576040517f08c379a000000000000000000000000000000000000000000000000000000000815260040161036190610929565b60405180910390fd5b826000600260009054906101000a900473ffffffffffffffffffffffffffffffffffffffff1673ffffffffffffffffffffffffffffffffffffffff16639f83fabd836040518263ffffffff1660e01b81526004016103c891906107bb565b602060405180830381865afa1580156103e5573d6000803e3d6000fd5b505050506040513d601f19601f82011682018060405250810190610409919061095e565b11610449576040517f08c379a0000000000000000000000000000000000000000000000000000000008152600401610440906109d7565b60405180910390fd5b60036000858152602001908152602001600020339080600181540180825580915050600190039060005260206000200160009091909190916101000a81548173ffffffffffffffffffffffffffffffffffffffff021916908373ffffffffffffffffffffffffffffffffffffffff160217905550833373ffffffffffffffffffffffffffffffffffffffff167fd5569e6ef7c08839f6751fbed50ee2fbe615ccde45334c21a3cac6dd569ee6a960405160405180910390a350505050565b6004602052816000526040600020602052806000526040600020600091509150505481565b81600460003373ffffffffffffffffffffffffffffffffffffffff1673ffffffffffffffffffffffffffffffffffffffff16815260200190815260200160002060008381526020019081526020016000208190555080823373ffffffffffffffffffffffffffffffffffffffff167fe59eb6a0e8df64e8d26d7f90201b4b8603cad8b83fd718930710aeeff8d7b0b260405160405180910390a45050565b600360205281600052604060002081815481106105e657600080fd5b906000526020600020016000915091509054906101000a900473ffffffffffffffffffffffffffffffffffffffff1681565b600260005403610654576040517f3ee5aeb500000000000000000000000000000000000000000000000000000000815260040160405180910390fd5b6002600081905550565b6001600081905550565b50805460008255906000526020600020908101906106869190610689565b50565b5b808211156106a257600081600090555060010161068a565b5090565b600080fd5b6000819050919050565b6106be816106ab565b81146106c957600080fd5b50565b6000813590506106db816106b5565b92915050565b6000602082840312156106f7576106f66106a6565b5b6000610705848285016106cc565b91505092915050565b600073ffffffffffffffffffffffffffffffffffffffff82169050919050565b60006107398261070e565b9050919050565b6107498161072e565b811461075457600080fd5b50565b60008135905061076681610740565b92915050565b60008060408385031215610783576107826106a6565b5b600061079185828601610757565b92505060206107a2858286016106cc565b9150509250929050565b6107b5816106ab565b82525050565b60006020820190506107d060008301846107ac565b92915050565b600080604083850312156107ed576107ec6106a6565b5b60006107fb858286016106cc565b925050602061080c858286016106cc565b9150509250929050565b61081f8161072e565b82525050565b600060208201905061083a6000830184610816565b92915050565b600060608201905061085560008301866107ac565b61086260208301856107ac565b61086f6040830184610816565b949350505050565b7f4e487b7100000000000000000000000000000000000000000000000000000000600052603260045260246000fd5b600082825260208201905092915050565b7f446576656c6f70657220616c72656164792061737369676e656420746f20746860008201527f6973206973737565000000000000000000000000000000000000000000000000602082015250565b60006109136028836108a6565b915061091e826108b7565b604082019050919050565b6000602082019050818103600083015261094281610906565b9050919050565b600081519050610958816106b5565b92915050565b600060208284031215610974576109736106a6565b5b600061098284828501610949565b91505092915050565b7f4973737565206973206e6f742066756e64656400000000000000000000000000600082015250565b60006109c16013836108a6565b91506109cc8261098b565b602082019050919050565b600060208201905081810360008301526109f0816109b4565b905091905056fea26469706673582212209f12f50c998a59f002f5f59655b784032fc0142131079ab8930c29fdb3ae791e64736f6c634300081c0033",
  "linkReferences": {},
  "deployedLinkReferences": {}
}