{
  "_format": "hh-sol-artifact-1",
  "contractName": "Number",
  "sourceName": "contracts/Number.sol",
  "abi": [
    {
      "anonymous": false,
      "inputs": [
        {
          "indexed": false,
          "internalType": "uint256",
          "name": "oldValue",
          "type": "uint256"
        },
        {
          "indexed": false,
          "internalType": "uint256",
          "name": "newValue",
          "type": "uint256"
        }
      ],
      "name": "NumberChanged",
      "type": "event"
    },
    {
      "inputs": [
        {
          "internalType": "uint256",
          "name": "a",
          "type": "uint256"
        },
        {
          "internalType": "uint256",
          "name": "b",
          "type": "uint256"
        }
      ],
      "name": "adder",
      "outputs": [
        {
          "internalType": "uint256",
          "name": "",
          "type": "uint256"
        }
      ],
      "stateMutability": "pure",
      "type": "function"
    },
    {
      "inputs": [],
      "name": "doubleNumber",
      "outputs": [
        {
          "internalType": "uint256",
          "name": "",
          "type": "uint256"
        }
      ],
      "stateMutability": "view",
      "type": "function"
    },
    {
      "inputs": [],
      "name": "number",
      "outputs": [
        {
          "internalType": "uint256",
          "name": "",
          "type": "uint256"
        }
      ],
      "stateMutability": "view",
      "type": "function"
    },
    {
      "inputs": [
        {
          "internalType": "uint256",
          "name": "_num",
          "type": "uint256"
        }
      ],
      "name": "setNumber",
      "outputs": [],
      "stateMutability": "nonpayable",
      "type": "function"
    }
  ],
  "bytecode": "0x6080604052348015600f57600080fd5b5061032d8061001f6000396000f3fe608060405234801561001057600080fd5b506004361061004c5760003560e01c806306b034e9146100515780633fb5c1cb14610081578063603625141461009d5780638381f58a146100bb575b600080fd5b61006b60048036038101906100669190610192565b6100d9565b60405161007891906101e1565b60405180910390f35b61009b600480360381019061009691906101fc565b6100ef565b005b6100a561013b565b6040516100b291906101e1565b60405180910390f35b6100c3610151565b6040516100d091906101e1565b60405180910390f35b600081836100e79190610258565b905092915050565b600080549050816000819055507f31431e8e0193815c649ffbfb9013954926640a5c67ada972108cdb5a47a0d7288160005460405161012f92919061028c565b60405180910390a15050565b6000600260005461014c91906102b5565b905090565b60005481565b600080fd5b6000819050919050565b61016f8161015c565b811461017a57600080fd5b50565b60008135905061018c81610166565b92915050565b600080604083850312156101a9576101a8610157565b5b60006101b78582860161017d565b92505060206101c88582860161017d565b9150509250929050565b6101db8161015c565b82525050565b60006020820190506101f660008301846101d2565b92915050565b60006020828403121561021257610211610157565b5b60006102208482850161017d565b91505092915050565b7f4e487b7100000000000000000000000000000000000000000000000000000000600052601160045260246000fd5b60006102638261015c565b915061026e8361015c565b925082820190508082111561028657610285610229565b5b92915050565b60006040820190506102a160008301856101d2565b6102ae60208301846101d2565b9392505050565b60006102c08261015c565b91506102cb8361015c565b92508282026102d98161015c565b915082820484148315176102f0576102ef610229565b5b509291505056fea2646970667358221220e447b14fd18b6bfd2cd2d56fe996bd951122280eba2282e4ccf5d73e7c2a1f6864736f6c634300081c0033",
  "linkReferences": {},
  "deployedLinkReferences": {}
}